{
  "contractName": "ProductVerification",
  "abi": [
    {
      "inputs": [],
      "stateMutability": "nonpayable",
      "type": "constructor"
    },
    {
      "anonymous": false,
      "inputs": [
        {
          "indexed": true,
          "internalType": "string",
          "name": "serialNumber",
          "type": "string"
        },
        {
          "indexed": false,
          "internalType": "string",
          "name": "productName",
          "type": "string"
        }
      ],
      "name": "ProductAdded",
      "type": "event"
    },
    {
      "inputs": [],
      "name": "owner",
      "outputs": [
        {
          "internalType": "address",
          "name": "",
          "type": "address"
        }
      ],
      "stateMutability": "view",
      "type": "function",
      "constant": true
    },
    {
      "inputs": [
        {
          "internalType": "string",
          "name": "serialNumber",
          "type": "string"
        },
        {
          "internalType": "string",
          "name": "productName",
          "type": "string"
        }
      ],
      "name": "addProduct",
      "outputs": [],
      "stateMutability": "nonpayable",
      "type": "function"
    },
    {
      "inputs": [
        {
          "internalType": "string",
          "name": "serialNumber",
          "type": "string"
        }
      ],
      "name": "getProduct",
      "outputs": [
        {
          "internalType": "string",
          "name": "",
          "type": "string"
        }
      ],
      "stateMutability": "view",
      "type": "function",
      "constant": true
    }
  ],
  "bytecode": "0x608060405234801561001057600080fd5b50600080546001600160a01b03191633179055610648806100326000396000f3fe608060405234801561001057600080fd5b50600436106100415760003560e01c806368111cce146100465780638da5cb5b1461006f578063ca2efb5514610084575b600080fd5b6100596100543660046103e1565b610099565b60405161006691906104dd565b60405180910390f35b61007761018b565b604051610066919061049a565b610097610092366004610421565b61019a565b005b6060600283836040516100ad92919061048a565b9081526040519081900360200190205460ff166100d95750604080516020810190915260008152610185565b600183836040516100eb92919061048a565b90815260200160405180910390208054610104906105d7565b80601f0160208091040260200160405190810160405280929190818152602001828054610130906105d7565b801561017d5780601f106101525761010080835404028352916020019161017d565b820191906000526020600020905b81548152906001019060200180831161016057829003601f168201915b505050505090505b92915050565b6000546001600160a01b031681565b6000546001600160a01b031633146101cd5760405162461bcd60e51b81526004016101c490610557565b60405180910390fd5b826101ea5760405162461bcd60e51b81526004016101c49061057e565b806102075760405162461bcd60e51b81526004016101c490610530565b6002848460405161021992919061048a565b9081526040519081900360200190205460ff16156102495760405162461bcd60e51b81526004016101c4906105a7565b81816001868660405161025d92919061048a565b908152604051908190036020019020610277929091610301565b5060016002858560405161028c92919061048a565b908152604051908190036020018120805492151560ff19909316929092179091556102ba908590859061048a565b60405180910390207f50d3c24bed1484121cd34fb35cea80691f70b0818948c325aef1206b1345443383836040516102f39291906104ae565b60405180910390a250505050565b82805461030d906105d7565b90600052602060002090601f01602090048101928261032f5760008555610375565b82601f106103485782800160ff19823516178555610375565b82800160010185558215610375579182015b8281111561037557823582559160200191906001019061035a565b50610381929150610385565b5090565b5b808211156103815760008155600101610386565b60008083601f8401126103ab578182fd5b50813567ffffffffffffffff8111156103c2578182fd5b6020830191508360208285010111156103da57600080fd5b9250929050565b600080602083850312156103f3578182fd5b823567ffffffffffffffff811115610409578283fd5b6104158582860161039a565b90969095509350505050565b60008060008060408587031215610436578182fd5b843567ffffffffffffffff8082111561044d578384fd5b6104598883890161039a565b90965094506020870135915080821115610471578384fd5b5061047e8782880161039a565b95989497509550505050565b6000828483379101908152919050565b6001600160a01b0391909116815260200190565b60006020825282602083015282846040840137818301604090810191909152601f909201601f19160101919050565b6000602080835283518082850152825b81811015610509578581018301518582016040015282016104ed565b8181111561051a5783604083870101525b50601f01601f1916929092016040019392505050565b6020808252600d908201526c13985b59481c995c5d5a5c9959609a1b604082015260600190565b6020808252600d908201526c2737ba103a34329037bbb732b960991b604082015260600190565b6020808252600f908201526e14d95c9a585b081c995c5d5a5c9959608a1b604082015260600190565b60208082526016908201527550726f6475637420616c72656164792065786973747360501b604082015260600190565b6002810460018216806105eb57607f821691505b6020821081141561060c57634e487b7160e01b600052602260045260246000fd5b5091905056fea264697066735822122031bca24b2371bfcedabdb711ce9054e838d288312a9384cccc084995cfb3867064736f6c63430008000033",
  "immutableReferences": {},
  "source": "// SPDX-License-Identifier: MIT\npragma solidity 0.8.0;\n\ncontract ProductVerification {\n    address public owner;\n\n    // serialNumber => productName\n    mapping(string => string) private products;\n    // Track existence to prevent duplicates and to detect not-found\n    mapping(string => bool) private exists;\n\n    event ProductAdded(string indexed serialNumber, string productName);\n\n    modifier onlyOwner() {\n        require(msg.sender == owner, \"Not the owner\");\n        _;\n    }\n\n    constructor() {\n        owner = msg.sender;\n    }\n\n    function addProduct(string calldata serialNumber, string calldata productName) external onlyOwner {\n        require(bytes(serialNumber).length > 0, \"Serial required\");\n        require(bytes(productName).length > 0, \"Name required\");\n        require(!exists[serialNumber], \"Product already exists\");\n\n        products[serialNumber] = productName;\n        exists[serialNumber] = true;\n        emit ProductAdded(serialNumber, productName);\n    }\n\n    function getProduct(string calldata serialNumber) external view returns (string memory) {\n        if (!exists[serialNumber]) {\n            return \"\"; // empty string indicates not found\n        }\n        return products[serialNumber];\n    }\n}\n",
  "sourcePath": "C:\\Users\\HET\\Desktop\\withoutbackend\\contracts\\ProductVerification.sol",
  "compiler": {
    "name": "solc",
    "version": "0.8.0+commit.c7dfd78e.Emscripten.clang"
  },
  "schemaVersion": "3.4.16",
  "updatedAt": "2025-10-08T08:16:34.573Z",
  "networkType": "ethereum",
  "devdoc": {
    "kind": "dev",
    "methods": {},
    "version": 1
  },
  "userdoc": {
    "kind": "user",
    "methods": {},
    "version": 1
  }
}